:0600000019CA54CB77CBB6
:020016009ECA80
:020020007ACA9A
:14003400FFFFFFFFFFFFFFFFFFFFFFFFFFFFFFFFFFFFFFFFCC
:14004800FFFFFFFFFFFFFFFFFFFFFFFFFFFFFFFFFFFFFFFFB8
:14005C00FFFFFFFFFFFFFFFFFFFFFFFFFFFFFFFFFFFFFFFFA4
:14007000FFFFFFFFFFFFFFFFFFFFFFFFFFFFFFFFFFFFFFFF90
:14008400FFFF7FFFFFFF7FFFFFFF7FFFFFFF3FFFFFFFBFFFFC
:14009800FFFFBFFFFFFF9FFFFFFF9FFFFFFFCFFFFFFFCFFFC8
:1400AC00FFFFC7FFFFFFC3FFFFFFE3FFFFFFE1FFFFFFF1FF10
:1400C000FFFFF0FFFFFFF8FFFF7FF8FFFF3FFCFFFF3FFCFF63
:1400D400FF1FFEFFFF0FFEFF7F07FFFFFF80FFFFFFC0FFFF34
:1400E800FFC0FFFFFFE1FFFFFFFBFFFFFFFFFFFFFFFFFFFF79
:1400FC00FFFFFFFFFFFFFFFFFFFFFFFFFFFFFFFFFFFFFFFF04
:14011000FFFFFFFFFFFFFFFFFFFFFFFFFFFFFFFFFFFFFFFFEF
:14012400FFFFFFFFFFFFFFFFFFFFFFFFFFFFFFFFFFFFFFFFDB
:14013800FFFFFFFFFFFFFFFFFFFFFFFFFFFFFFFFFFFFFFFFC7
:14014C00FFFFFFFFFFFFFFFFFFFFFFFFFFFFFFFFFFFFFFFFB3
:14016000FFFFFFFFFFFFFFFFFFFFFFFFFFFFFFFFFFF1FFFFAD
:14017400FFE0FFFF7FC0FFFF7FC0FFFFFF83FFFFFF87FFFF1C
:14018800FF0FFFFFFF0FFFFFFF1FFEFFFF3FFEFFFF3FFCFFBC
:14019C00FF7FFCFFFF7FF8FFFFFFF8FFFFFFF0FFFFFFF1FF91
:1401B000FFFFF3FFFFFFE3FFFFFFE3FFFFFFE7FFFFFFC7FFE3
:1401C400FFFFCFFFFFFFCFFFFFFFDFFFFFFF9FFFFFFFBFFF5B
:1401D800FFFFBFFFFFFFBFFFFFFFBFFFFFFFFFFFFFFFFFFFE7
:1401EC00FFFFFFFFFFFFFFFFFFFFFFFFFFFFFFFFFFFFFFFF13
:14020000FFFFFFFFFFFFFFFFFFFFFFFFFFFFFFFFFFFFFFFFFE
:14021400FFFFFFFFFFFFFFFFFFFFFFFFFFFFFFFFFFFFFFFFEA
:14022800FFFFFFFFFFFFFFFFFFFFFFFFFFFFFFFFFFFFFFFFD6
:14023C00FFFFFFFFFFFFFFFFFFFFFFFFFFFFFFFFFFFFFFFFC2
:14025000FFFFFFFFFFFFFFFFFFFFFFFFFFFFFFFFFFFFFFFFAE
:14026400FFFFFFFFFFFFFFFFFFFFFFFFFFFFFFFFFFFFFFFF9A
:14027800FFFFFFFFFFFFFFFFFFFFFFFFFFFFFBFFFFFFF3FF96
:14028C00FFFFF1FFFFFFF1FFFFFFF1FFFFFFF0FFFFFFF8FFB2
:1402A000FF7FF8FFFF7FF8FFFF7FF8FFFF3FF8FFFF3FFCFF7D
:1402B400FF3FFCFFFF1FFCFFFF1FFCFFFF1FFCFFFF1FFEFF97
:1402C800FF0FFEFFFF0FFEFFFF0FFEFFFF0FFEFFFF07FEFFF3
:1402DC00FF07FFFFFF07FFFFFF07FFFFFF07FFFFFF07FFFFFA
:1402F000FF07FFFFFF03FFFFFF83FFFFFF83FFFFFF83FFFF76
:14030400FF83FFFFFF83FFFFFF83FFFFFF83FFFFFF83FFFF65
:14031800FF81FFFFFF81FFFFFF81FFFFFF81FFFFFF81FFFF5B
:14032C00FF81FFFFFF81FFFFFFC1FFFFFF81FFFFFF81FFFF07
:14034000FF81FFFFFF81FFFFFF81FFFFFF81FFFFFF81FFFF33
:14035400FF83FFFFFF83FFFFFF83FFFFFF83FFFFFF83FFFF15
:14036800FF83FFFFFF83FFFFFF03FFFFFF03FFFFFF03FFFF81
:14037C00FF03FFFFFF07FFFFFF07FFFFFF07FFFFFF07FFFF5D
:14039000FF07FEFFFF07FEFFFF0FFEFFFF0FFEFFFF0FFEFF32
:1403A400FF0FFEFFFF1FFCFFFF1FFCFFFF1FFCFFFF3FFCFFB6
:1403B800FF3FF8FFFF3FF8FFFF3FF8FFFF7FF8FFFF7FF8FFA8
:1403CC00FF7FF8FFFFFFF0FFFFFFF0FFFFFFF1FFFFFFF1FFF2
:1403E000FFFFF1FFFFFFF3FFFFFFF3FFFFFFFBFFFFFFFFFF47
:1403F400FFFFFFFFFFFFFFFFFFFFFFFFFFFFFFFFFFFFFFFF09
:14040800FFFFFFFFFFFFFFFFFFFFFFFFFFFFFFFFFFFFFFFFF4
:14041C00FFFFFFFFFFFFFFFFFFFFFFFFFFFFFFFFFFFFFFFFE0
:14043000FFFFFFFFFFFFFFFFFFFFFFFFFFFFFFFFFFFFFFFFCC
:14044400FFFFFFFFFFFFFFFFFFFFFFFFFFFFFFFFFFFFFFFFB8
:14045800FFFFFFFFFFFFFFFFFFFFFFFFFFFFFFFFFFFFFFFFA4
:14046C00FFFFFFFFFFFFFFFFFFFFFFFFFFFFFBFFFFFFFBFF98
:14048000FFFFFBFFFFFFF9FFFFFFF9FFFFFFF8FFFFFFF8FF9A
:14049400FF7FF8FFFF7FF8F9FF3FFCFDFF1FFCFCFF1F7EFC8B
:1404A800FF0F7EFEFF0F7FFEFF073FFEFF833FFFFF813FFF6A
:1404BC00FFC01FFFFFC01FFFFFE01FFFFFF11FFFFFF907FF69
:1404D000FFFF01FFFFFFE0FFFF3FF0FFFF3FF8FFFF1FFEFFC0
:1404E400FF0FFFFFFF87FFFFFFC7FFFFFFE7FFFFFFE7FFFFE8
:1404F800FFF7FFFFFFFFFFFFFFFFFFFFFFFFFFFFFFFFFFFF0C
:14050C00FFFFFFFFFFFFFFFFFFFFFFFFFFFFFFFFFFFFFFFFEF
:14052000FFFFFFFFFFFFFFFFFFFFFFFFFFFFFFFFFFFFFFFFDB
:14053400FFFFFFFFFFFFFFFFFFFFFFFFFFFFFFFFFFFFFFFFC7
:14054800FFFFFFFFFFFFFFFFFFFFFFFFFFFFFFFFFFFFFFFFB3
:14055C00FFFFFFFFFFFBFFFFFFF3FFFFFFF3FFFFFFE3FFFFD7
:14057000FFE7FFFFFFC7FFFFFF8FFFFFFF1FFFFFFF1FFEFF0C
:14058400FF3FFCFFFF7FF0FFFFFCE0FF7FF881FF7FF887FFEF
:140598007FF08FFF7FE08FFFFFE08FFFFFC08FFFFFC19FFF4D
:1405AC00FF839FFFFF839FFFFF871FFFFF073FFFFF0F3FFFC7
:1405C000FF1F7EFEFF1F7EFEFF1FFEFEFF3FFEFEFF3FFCFF66
:1405D400FF7FFCFFFF7FFCFFFF7FFCFFFFFFFCFFFFFFFCFFB6
:1405E800FFFFFEFFFFFFFFFFFFFFFFFFFFFFFFFFFFFFFFFF14
:1405FC00FFFFFFFFFFFFFFFFFFFFFFFFFFFFFFFFFFFFFFFFFF
:14061000FFFFFFFFFFFFFFFFFFFFFFFFFFFFFFFFFFFFFFFFEA
:14062400FFFFFFFFFFFFFFFFFFFFFFFFFFFFFFFFFFFFFFFFD6
:14063800FFFFFFFFFFFFFFFFFFFFFFFFFFFFFFFFFFFFFFFFC2
:14064C00FFFFFFFFFFFFFFFFFFFFFFFFFFFFFFFFFFFFFFFFAE
:14066000FFFFFFFFFFFFFFFFFFFFFFFFFFFFFFFFFFFFFFFF9A
:14067400FFFFFFFFFFFFFFFFFFFFFFFFFFFFFFFFFFFFFFFF86
:14068800FFFFFFFFFFFFFFFFFFFFFFFFFFFFFFFFFFFFFFFF72
:14069C00FFFFFFFFFFFFFFFFFFFFFFFFFFFFFFFFFFFFFFFF5E
:1406B000FFFFFFFFFFFFFFFFFFFFFFFFFFFFFFFFFFFFFFFF4A
:1406C400FFFFFFFFFFFFFFFFFFFFFFFFFFFFFFFFFFFFFFFF36
:1406D800FFFFFFFFFFFFFFFFFFFFFFFFFFFFFFFFFFFFFFFF22
:1406EC00FFFFFFFFBFFFFFFF0FFCFFFF0FF8FFFF07E0FFFF4F
:1407000007C0FFFF0780FFFF0300FEFF0300FCFF0300F8FFA3
:140714000300F0FF0300E0FF0100C0FF0100C0FF010080FFFD
:14072800010080FF010000FF010000FF010000FF010000FF3D
:14073C00010000FF010000FF010000FF010080FF010080FFA9
:140750000100C0FF0100E0FF0100E0FF0100F0FF0100F8FF2D
:140764000300FCFF0300FEFF0300FFFF03C0FFFF03E0FFFFE0
:1407780007F0FFFF07F8FFFF0FFEFFFF0FFFFFFFFFFFFFFF68
:14078C00FFFFFFFFFFFFFFFFFFFFFFFFFFFFFFFFFFFFFFFF6D
:1407A000FFFFFFFFFFFFFFFFFFFFFFFFFFFFFFFFFFFFFFFF59
:1407B400FFFFFFFFFFFFFFFFFFFFFFFFFFFFFFFFFFFFFFFF45
:1407C800FFFFFFFFFFFFFFFFFFFFFFFFFFFFFFFFFFFFFFFF31
:1407DC00FFFFFFFFFFFFFFFFFFFFFFFFFFFFFFFFFFFFFFFF1D
:1407F000FFFFFFFFFFFFFFFFFFFFFFFFFFFFFFFFFFFFFFFF09
:14080400FFFFFFFFFFFFFFFFFFFFFFFFFFFFFFFFFFFFFFFFF4
:14081800FFFFFFFFFFFFFFFFFFFFFFFFFFFFFFFFFFFFFFFFE0
:14082C00FFFFFFFFFFFFFFFFFFFFFFFFFFFFFFFFFFFFFFFFCC
:14084000FFFFFFFFFFFFFFFFFFFFFFFFFFFFFFFFFFFFFFFFB8
:14085400FFFFFFFFFFFFFFFFFFFFFFFFFFFFFFFFFFFFFFFFA4
:14086800FFFFFFFFFFFFFFFFFFFFFFFFFFFFFFFFFFFFFFFF90
:14087C00FFFFFFFFFFFFFFFFFFFFFFFFFFFFFFFFFFFFFFFF7C
:14089000FFFFFFFFFFFFFFFFFFCFEFFFFF87CFFFFF878FFF38
:1408A400FF038FFFFF039FFFFF030FFFFF031FFFFF431FFF80
:1408B800FF630FFFFF630FFFFF470FFFFF870FFFFF8F0FFFC8
:1408CC00FFFF07FFFFFF07FFFFFF87FFFFFF83FFFFFFC3FF4C
:1408E000FFFFC3FFFFFFE1FFFFFFF0FFFFFFF8FFFFFFFFFF88
:1408F400FFFFFFFFFFFFFFFFFFFFFFFFFFFFFFFFFFFFFFFF04
:14090800FFFFFFFFFFFFFFFFFFFFFFFFFFFFFFFFFFFFFFFFEF
:14091C00FFFFFFFFFFFFFFFFFFFFFFFFFFFFFFFFFFFFFFFFDB
:14093000FFFFFFFFFFFFFFFFFFFFFFFFFFFFFFFFFFFFFFFFC7
:14094400FFFFFFFFFFFFFFFFFFFFFFFFFFFFFFFFFFFFFFFFB3
:14095800FFFFFFFFFFFFFFFFFFFFFFFFFFFFFFFFFFFFFFFF9F
:14096C00FFFFFFFFFFFFFFFFFFFFFFFFFFFFFFFFFFFFFFFF8B
:14098000FFFFFFFFFFFFF0FFFFFFE1FFFFFFC3FFFFFF87FF58
:14099400FFFF87FFFFFF07FFFFFF0FFFFFFF0FFEFFBF1FFED5
:1409A800FF1F1FFEFF0F1EFEFF8F1EFEFF871EFEFFC73FFE87
:1409BC00FF873EFEFF873EFEFF073EFEFF073EFFFF073FFFDA
:1409D000FF0F9FFFFF9FDFFFFFDFFFFFFFFFFFFFFFFFFFFF17
:1409E400FFFFFFFFFFFFFFFFFFFFFFFFFFFFFFFFFFFFFFFF13
:1409F800FFFFFFFFFFFFFFFFFFFFFFFFFFFFFFFFFFFFFFFFFF
:140A0C00FFFFFFFFFFFFFFFFFFFFFFFFFFFFFFFFFFFFFFFFEA
:140A2000FFFFFFFFFFFFFFFFFFFFFFFFFFFFFFFFFFFFFFFFD6
:140A3400FFFFFFFFFFFFFFFFFFFFFFFFFFFFFFFFFFFFFFFFC2
:140A4800FFFFFFFFFFFFFFFFFFFFFFFFFFFFFFFFFFFFFFFFAE
:140A5C00FFFFFFFFFFFFFFFFFFFFFFFFFFFFFFFFFFFFFFFF9A
:140A7000FFFFFFFFFFFFFFFFFFFFFFFFFFFFFFFFFFFFFFFF86
:140A8400FFFFFFFFFFFFFFFFFFFFFFFFFFFFFFFFFFFFFFFF72
:140A9800FFFFFFFFFFFFFFFFFFFFFFFFFFFFFFFFFFFFFFFF5E
:140AAC00FFFFFFFFFFFFFFFFFFFFFFFFFFFFFFFFFFFFFFFF4A
:140AC000FFFFFFFFFFFFFFFFFFFFFFFFFFFFFFFFFFFFFFFF36
:140AD400FFFFFFFFFFFFFFFFFFFFFFFFFFFFFFFFFFFFFFFF22
:140AE800FFFFFFFFFFFFFFFFFFFFFFFFFFFFFFFFFF8FFFFF7E
:140AFC00FF0FFFFFFF0FFFFFFF67FFFFFF67FFFFFF77FFFF92
:140B1000FF77FFFFFF77FFFFFF77FFFFFF77FFFFFF77FFFF8D
:140B2400FF77FFFFFF77FFFFFF77FFFFFF77FFFFFF33FFFFBD
:140B3800FF77FFFFFF77FFFFFF77FFFFFF77FFFFFF77FFFF65
:140B4C00FF77FFFFFF77FFFFFF77FFFFFF77FFFFFF77FFFF51
:140B6000FF77FEFFFF77FEFFFF67FEFFFF6FFFFFFF2FFFFFA0
:140B7400FF0FFFFFFF8FFFFFFFDFFFFFFFFFFFFFFFFFFFFF01
:140B8800FFFFFFFFFFFFFFFFFFFFFFFFFFFFFFFFFFFFFFFF6D
:140B9C00FFFFFFFFFFFFFFFFFFFFFFFFFFFFFFFFFFFFFFFF59
:140BB000FFFFFFFFFFFFFFFFFFFFFFFFFFFFFFFFFFFFFFFF45
:140BC400FFFFFFFFFFFFFFFFFFFFFFFFFFFFFFFFFFFFFFFF31
:140BD800FFFFFFFFFFFFFFFFFFFFFFFFFFFFFFFFFFFFFFFF1D
:140BEC00FFFFFFFFFFFFFFFFFFFFFFFFFFFFFFFFFFFFFFFF09
:140C0000FFFFFFFFFFFFFFFFFFFFFFFFFFFFFFFFFFFFFFFFF4
:140C1400FFFFFFFFFFFFFFFFFFFFFFFFFFFFFFFFFFFFFFFFE0
:140C2800FFFFFFFFFFFFFFFFFFFFFFFFFFFFFFFFFFFFFFFFCC
:140C3C00FFFFFFFFFFFFFFFFFFFFFFFFFFFFFFFFFFFFFFFFB8
:140C5000FFFFFFFFFFFFFFFFFFFFFFFFFFFFFFFFFFFFFFFFA4
:140C6400FFFFFFFFFFFFFFFFFFFFFFFFFFFFFFFFFFFFFFFF90
:140C7800FFFFFFFFFFFF80FFFF7F80FFFF3FE0FFFF1FF0FFC8
:140C8C00FF1FF8FFFF0FFCFFFF0FFCFFFF0FFEFFFF07FFFF1E
:140CA000FF07FFFFFF07FFFFFF87FFFFFF87FFFFFF87FFFFAC
:140CB400FF87FFFFFFC7FFFFFFC7FFFFFFC7FFFFFFC7FFFF98
:140CC800FFC7FFFFFFC7FFFFFFC7FFFFFFC7FFFFFFC7FFFF44
:140CDC00FFCFFFFFFF8FFFFFFF8FFFFDFF1FFFFCFF3FFFFCD0
:140CF000FF7FFEFCFFFF7FFCFFFF7FFCFFFF7FFCFFFF3FFCD4
:140D0400FFFF1FFEFFFF0FFFFFFF87FFFFFFFFFFFFFFFFFF38
:140D1800FFFFFFFFFFFFFFFFFFFFFFFFFFFFFFFFFFFFFFFFDB
:140D2C00FFFFFFFFFFFFFFFFFFFFFFFFFFFFFFFFFFFFFFFFC7
:140D4000FFFFFFFFFFFFFFFFFFFFFFFFFFFFFFFFFFFFFFFFB3
:140D5400FFFFFFFFFFFFFFFFFFFFFFFFFFFFFFFFFF3F7CFFE2
:140D6800FF1FFFFEFF1FFFFDFF8FFFFDFF8FFFFFFF87FFFDAA
:140D7C00FFC7FFFFFFC7FFFEFFC7FFFFFFC3FFFFFFC3FFFF98
:140D9000FFC3FFFFFFC3FFFFFFC3FFFFFFC3FFFFFFC3FFFF8F
:140DA400FFC3FFFFFF83FFFFFF83FFFFFF83FFFFFF87FFFF77
:140DB800FF87FFFFFF07FFFFFF07FFFFFF0FFEFFFF0FFEFF85
:140DCC00FF0FFCFFFF1FF8FFFF1FF0FFFF3FE0FFFF7FC0FF8E
:140DE000FFFFF1FFFFFFFFFFFFFFFFFFFFFFFFFFFFFFFFFF21
:140DF400FFFFFFFFFFFFFFFFFFFFFFFFFFFFFFFFFFFFFFFFFF
:140E0800FFFFFFFFFFFFFFFFFFFFFFFFFFFFFFFFFFFFFFFFEA
:140E1C00FFFFFFFFFFFFFFFFFFFFFFFFFFFFFFFFFFFFFFFFD6
:140E3000FFFFFFFFFFFFFFFFFFFFFFFFFFFFFFFFFFFFFFFFC2
:140E4400FFFFFFFFFFFFFFFFFFFFFFFFFFFFFFFFFFFFFFFFAE
:140E5800FFFFFFFFFFFFFFFFFFFFFFFFFFFFFFFBFFFFFFF9A4
:140E6C00FFFFFFF9FFFFFFF0FFFFFFF0FFFF7FF0FFFF7FF0C8
:140E8000FFFF3FE0FFFF3FE0FFFF1FE0FFFF1FE0FFFF0FE03D
:140E9400FFFF0FE0FFFF07E0FFFF07E0FFFF03E0FFFF03E0D1
:140EA800FFFF03E0FFFF01E0FFFF01E0FFFF00E0FFFF00E0DB
:140EBC00FFFF00E0FFFF00E0FF7F00E0FF7F00E0FF7F00E04C
:140ED000FF3F00E0FF3F00E0FF3F00E0FF3F00F0FF3F00F058
:140EE400FF1F00F0FF1F00F0FF1F00F0FF1F00F0FF1F00F0B4
:140EF800FF1F00F0FF0F00F0FF0F00F0FF0F00F0FF0F00F0E0
:140F0C00FF0F00F8FF0F00F0FF0F00F0FF0F00F8FF0F00F8C3
:140F2000FF0F00F8FF0F00F8FF0F00F8FF0F00F8FF0F00F89F
:140F3400FF0700F8FF0F00F8FF0F00F8FF0F00F8FF0F00F893
:140F4800FF0F00F8FF0F00F8FF0F00F8FF0F00F0FF0F00F087
:140F5C00FF0F00F8FF0F00F0FF0F00F0FF0F00F0FF0F00F083
:140F7000FF0F00F0FF0F00F0FF0F00F0FF1F00F0FF1F00F057
:140F8400FF1F00F0FF1F00F0FF1F00E0FF3F00E0FF3F00E003
:140F9800FF3F00E0FF3F00E0FF3F00E0FF7F00E0FF7F00E02F
:140FAC00FF7F00E0FF7F00E0FFFF00E0FFFF00E0FFFF00E0DB
:140FC000FFFF01C0FFFF01E0FFFF01E0FFFF03E0FFFF03E0DE
:140FD400FFFF03E0FFFF07E0FFFF07E0FFFF0FE0FFFF0FE084
:140FE800FFFF1FE0FFFF1FE0FFFF1FE0FFFF3FF0FFFF3FF0A4
:140FFC00FFFF7FF0FFFF7FF8FFFF7FF8FFFFFFF8FFFFFFFC9C
:14101000FFFFFFFCFFFFFFFFFFFFFFFFFFFFFFFFFFFFFFFFE3
:14102400FFFFFFFFFFFFFFFFFFFFFFFFFFFFFFFFFFFFFFFFCC
:14103800FFFFFFFFFFFFFFFFFFFFFFFFFFFFFFFFFFFFFFFFB8
:14104C00FFFFFFFFFFFFFFFFFFFFFFFFFFFFFFFFFFFFFFFFA4
:14106000FFFFFFFFFFFFFFFFFFFFFFFFFFFFFFFFFFFFFFFF90
:14107400FFFFFFFFFFFFFFFFFFFFFFFFFFFFFFFFFFFFFFFF7C
:14108800FFFFFFFFFFFFFFFFFFFFFFFFFFFFFFFFFF3FFFFF28
:14109C00FF3FFFFFFF1FFFFFFF0FFEFFFF0FFEFFFF0FFCFFC9
:1410B000FF07FCFFFF07F8FFFF23F8FFFF23F0FFFF63E0FFC3
:1410C400FF61C0FFFF81C0FFFF8180FFFF1101FFFF0002FEAC
:1410D800FF0002FCFF0010F8FF0801F8FF0000FCFF0088FC82
:1410EC007F0080FE7F8280FE7F8640FE7F0E44FF7F1800FFCB
:141100007F7020FF7F4020FF7F0000FF7F0092FF7F0092FF51
:141114003F0080FF3FFC81FF3FCE8FFF3F028CFF3F0180FF28
:141128003F0180FF3F0080FF3F0080FF3F0080FF3F0080FFFC
:14113C003F0080FF3F0081FF3F0081FF3F0081FF3F00A1FFC5
:141150003F00A5FF3F00A5FF7F00A0FF7FE0A0FF7F7820FF93
:141164007F3C00FF7F8E00FF7FA62AFF7F2B62FF7F0B50FE80
:141178007F0208FE7F0019FEFF4005FCFF5084FCFF1020F810
:14118C00FF042BF8FF8003FCFFA003FEFFC102FFFF4980FF83
:1411A000FF61C0FFFF31C0FFFF13E0FFFF13F0FFFF13F8FF32
:1411B400FF07F8FFFF07FCFFFF0FFCFFFF0FFEFFFF0FFEFF0A
:1411C800FF1FFFFFFF3FFFFFFF3FFFFFFFFFFFFFFFFFFFFF87
:1411DC00FFFFFFFFFFFFFFFFFFFFFFFFFFFFFFFFFFFFFFFF13
:1411F000FFFFFFFFFFFFFFFFFFFFFFFFFFFFFFFFFFFFFFFFFF
:14120400FFFFFFFFFFFFFFFFFFFFFFFFFFFFFFFFFFFFFFFFEA
:14121800FFFFFFFFFFFFFFFFFFFFFFFFFFFFFFFFFFFFFFFFD6
:14122C00FFFFFFFFFFFFFFFFFFFFFFFFFFFFFFFFFFFFFFFFC2
:14124000FFFFFFFFFFFFFFFFFFFFFFFFFFFFFFFFFFFFFFFFAE
:14125400FFFFFFFFFFFFFFFFFFFFFFFFFFFFFFFFFFFFFFFF9A
:14126800FFFFFFFFFFFFFFFFFFFFFFFFFFFFF7FFFFFFF3FF9A
:14127C00FFFFE1FFFFFFE0FFFF7FE4FFFF3FC4FFFF1FC4FF60
:14129000FF0FC4FFFF0F80FFFF1781FFFF9730FFFF1330FF50
:1412A400FF3320FEFF2141FCFF2140FCFF6180F8FF4082F0A4
:1412B800FFC008F3FF88CDE37FA410E07F0432F07F1468F886
:1412CC007F10C0F87F4085FD3F0000FC3FA000FE3FA00BFE86
:1412E0003FA003FFBF0026FFBF00ACFF9F01B8FF9F0380FF53
:1412F4001F0780FF1F06C0FF1F1CC0FF1F18C0FF5F70C0FFDF
:141308005FE0E1FF5F80E7FF5F00EEFF1F00E0FF1F02E0FFA3
:14131C001F1EE0FF1FFEE0FF1F78E0FF1F00E0FF1F00E0FF33
:141330001F00E0FF0F02F0FF1F00E0FF1F00E0FF1F00E0FFB1
:141344001F00E0FF1F00E0FF1F60E0FF1F7CE0FF1F0EE0FFB5
:141358005F02E4FF5F00ECFF5F00EEFF5F80C7FF1FC0C0FF64
:14136C001F60C0FF1F38C0FF1F08A0FF1F0C80FF1F0680FF05
:14138000BF0390FFBF0102FFBF010BFFBF8009FEBF8004FEF6
:141394003F4004FC7F6062FC7F2003F97F9089F87F904CF112
:1413A8007FC824E0FF4832E0FF6412CCFF4011E4FF0901F41B
:1413BC00FF8120FAFF9170F9FF4310FDFF6398FEFF4708FEF7
:1413D000FF070CFFFF0F14FFFF0FA4FFFF1FE6FFFF3F82FF64
:1413E400FF7FC2FFFFFFC0FFFFFFE1FFFFFFE3FFFFFFE7FF57
:1413F800FFFFFFFFFFFFFFFFFFFFFFFFFFFFFFFFFFFFFFFFF5
:14140C00FFFFFFFFFFFFFFFFFFFFFFFFFFFFFFFFFFFFFFFFE0
:14142000FFFFFFFFFFFFFFFFFFFFFFFFFFFFFFFFFFFFFFFFCC
:14143400CFEFD4E0CDBFDEBFC051D0400AEA08830024E0E085
:14144800F1E011E0EF30F10711F00192FBCF0083E4E3F4E13A
:14145C00A0E0B1E014E1E433F10721F0C89531960D92F9CFCB
:1414700047D2FFCF8FEC85B980E384B98FE788B9222427B84C
:141484008FE88BB982E78AB90895A89589E280936000089598
:14149800222425BC26BC24BC84E085BD08952224209281009B
:1414AC002092850020928400209289002092880020928B000D
:1414C00020928A002092870020928600209280002092810006
:1414D4000895F894CDDFD9DFDDDFE3DF222425BE88E0809355
:1414E800690083E08DBB81E080936E0082E080936F00209264
:1414FC00700020926B0020926C0020926D0020926800209246
:141510006400789408958A939A93EA938FB78A9380910E0170
:141524008F3F19F08F5F80930E0180910C0190910D018F3FB1
:14153800EFEF9E0729F0019690930D0180930C0189918FBFB3
:14154C00E99199918991189511D2F7D180910C0190910D0128
:141560008035E3EC9E0708F07DC084E390E0E0910201F0914D
:1415740003013396E80FF91F249033244424552488E190E0C2
:141588008A938101920122D21801290184E390E0E09102019B
:14159C00F09103013296E80FF91F64907724882499244301A3
:1415B000662477242628372848285928E0910201F09103016B
:1415C4003196E80FF91F649077248824992488E090E08A9350
:1415D80083019401FBD1202A312A422A532A84E390E0E09144
:1415EC000201F0910301E80FF91F649077248824992426280E
:14160000372848285928309209012092080150920B0140923F
:141614000A013092050120920401509207014092060104E091
:14162800F8D005E0F6D0F894809102019091030104969093B9
:14163C0003018093020180E094E1209002013090030182159D
:14165000930530F4222433243092030120920201789421C0C5
:14166400F894222420928100789440E050E060E070E050939E
:14167800050140930401709307016093060140E050E060E0EB
:14168C0070E0509309014093080170930B0160930A0104E040
:1416A000BCD005E0BAD043D17ED118952A923A920A938A93E9
:1416B4009A932FB62A92002701C0A8954A9BFDCF88EE93E095
:1416C800202E3324821593054CF400330CF4FFCF8FEF9FEFED
:1416DC0090930D0180930C0129902FBE99918991099139905C
:1416F0002990189541D125D1AA24BB24F89484E020900E011C
:14170400821508F065C02224209285002092840080910C014C
:1417180090910D018F3FE0E09E0790F583E090E020900C0146
:14172C0030900D018215930548F52092890026B42092880020
:14174000222426BC80910001909101018431E0E09E0731F0FD
:141754000196909301018093000110C0222433243092010180
:1417680020920001809102019091030180509C4E90930301A0
:14177C008093020189E0809381001FC041E050E060E070E086
:141790005093050140930401709307016093060141E050E02E
:1417A40060E070E0509309014093080170930B0160930A01CB
:1417B80004E02FD005E02DD022242092810022243324309280
:1417CC000D0120920C011CC041E050E060E070E05093050196
:1417E00040930401709307016093060141E050E060E070E037
:1417F400509309014093080170930B0160930A0104E009D04E
:1418080005E007D0222420920E0178948ED0C7D0189591D0FA
:14181C00C02E24978C2D843091F440900A0150900B012090A6
:141830000801309009012094309440945094FE01208231824D
:141844004282538211C04090060150900701209004013090F2
:1418580005012094309440945094FE01208231824282538259
:14186C00AA24BB242CC02D9841E050E060E070E0FE0120808A
:14188000318042805380242235224622572240E050E060E000
:1418940070E0241635064606570611F02C9A01C02C98FE0187
:1418A80020803180428053805694479437942794FE0120825A
:1418BC003182428253822D9AC50101965C01C5018032E0E013
:1418D0009E0708F4CECF01E01C2D88D0202E20943BB0322005
:1418E4003BB8000000000000000001E01C2D7CD02BB0202A62
:1418F8002BB824961CD00895EADD22243324309203012092DA
:14190C00020130920D0120920C0130920101209200018FEF40
:1419200080930E015E9A01C0A895FECF0895E2E010C0E4E0DB
:141934000EC0E8E00CC0FA92EA92DA92CA92BA92AA927A93D8
:141948006A935A934A930895E1E049915991E0FD089569912E
:14195C007991E1FD0895A990B990E2FD0895C990D990E3FD52
:141970000895E990F9900895FA93EA93BA93AA939A938A9349
:141984003A932A931A930A939A928A927A926A925A924A9263
:141998003A922A921A920A920FB60A92089509900FBE09906E
:1419AC0019902990399049905990699079908990999009915C
:1419C00019912991399189919991A991B991E991F99108957C
:1419D4000F920990002031F0000F111F221F331F0A94F8CF4D
:1019E8000F900895112319F0000F1A95FBCF089551
:00000001FF
